:03000000020DD915
:0C0DD900787FE4F6D8FD758141020E2001
:100D25002A2A2057656C636F6D65202A2A00496E53
:100D3500697469616C697A696E672E2E0041540089
:100D4500415445300041542B434D47463D31004108
:100D5500542B434D47443D31004E6F204E6577205F
:100D65004D5347004D534720524543494556454449
:100D75000041542B434D47523D31004D53472052BE
:100D8500656164696E672E2E00624F4E00426C7578
:100D950062204F4E00624F4600426C7562204F46FE
:100DA50046006D4F4E004D6F746F72204F4E006DB3
:100DB5004F46004D6F746F72204F464600664F4E8A
:100DC5000046616E204F4E00664F460046616E201C
:040DD5004F4646003F
:040F1F00020C0000C0
:10080000E4F580C283758920759850758DFDD28E70
:100810007F32FE120E9F7F38120EE77F0C120EE71A
:100820007F01120EE77F80120EE77BFF7A0D79259C
:10083000120C12120E9B7FC0120EE77F01120EE700
:100840007BFF7A0D7933120C12120E9B7BFF7A0D0F
:100850007942120ED4120F05120E9B7BFF7A0D798E
:1008600045120ED4120F05120E9B7BFF7A0D794AAA
:10087000120ED4120F05120E9B7BFF7A0D795412C3
:100880000ED4120F057F01120EE77FC0120EE77B18
:10089000FF7A0D795E120C127F327E00120E9FE4F9
:1008A000F50EF50FF538F50CF50D120F178F0EE557
:1008B0000EB42BF67F2C7E01120E9F7BFF7A0D79F2
:1008C00069120C12120E9BE4F50EF50FF538F50CBB
:1008D000F50D120E657BFF7A0D7976120ED4120F8C
:1008E000057F027E00120E9F120F178F0EE50EB4C9
:1008F0002BF6120F178F0FAF38053874102FF8A68C
:100900000FE50FB44BEC153874102538F8E4F67F7A
:1009100001120EE77BFF7A0D7980120C12750E4BD7
:100920007410250EF8E6FF7408250DF8A607050DCE
:10093000E50D7002050C050EE50EB44EE378087C5B
:10094000007D007BFF7A0D798E120BF5EF7015D2CA
:10095000807F01120EE77FC3120EE77BFF7A0D79CD
:1009600092120C1278087C007D007BFF7A0D799A38
:10097000120BF5EF7015C2807F01120EE77FC312D4
:100980000EE77BFF7A0D799E120C1278087C007DB1
:10099000007BFF7A0D79A7120BF5EF7015D2817FDE
:1009A00001120EE77FC3120EE77BFF7A0D79AB12BF
:1009B0000C1278087C007D007BFF7A0D79B4120B55
:1009C000F5EF7015C2817F01120EE77FC3120EE7AB
:1009D0007BFF7A0D79B8120C1278087C007D007BC1
:1009E000FF7A0D79C2120BF5EF7015D2827F0112DA
:1009F0000EE77FC3120EE77BFF7A0D79C6120C1249
:100A000078087C007D007BFF7A0D79CD120BF5EF25
:100A10007015C2827F01120EE77FC3120EE77BFFC3
:100A20007A0D79D1120C127FF47E01120E9F02080A
:010A3000794C
:080F0F008F993099FDC299226F
:070F17003098FDAF99C2986C
:010F1E0022B0
:100ED400120A31FF600C120F0F740129F9E43AFA77
:030EE40080EE227B
:0A0F05007F0D120F0F7F0A020F0F7D
:100E6500D2837F147E00120E9FC2837F147E0012F0
:100E75000E9FD2837F147E00120E9FC2837F147E45
:100E850000120E9FD2837F147E00120E9FC2837FB5
:060E9500147E00020E9F16
:0F0EE7008F90C2A0D2A1C2A17F017E00020E9FF8
:0F0EF6008F90D2A0D2A1C2A17F017E00020E9FD9
:060C12008B398A3A893B90
:100C1800120EBF8E3E8F3F7F80120EE77F0A7E0046
:100C2800120E9F7F01120EE77F0A7E00120E9FAB05
:100C380039AA3AA93B120EBFC3EF9410EE940050A4
:100C48002EE4F53CF53DAB39AA3AA93B853D8285B2
:100C58003C83120A4AFF7003020D24120EF67F012C
:100C68007E00120E9F053DE53D70DB053C80D7E414
:100C7800F53CF53DAB39AA3AA93B853D82853C83D5
:100C8800120A4AFF120EF67F017E00120E9F053DE2
:100C9800E53D7002053CC39410E53C6480948040B7
:100CA800D3753C00753D01753E00753F10AB39AA00
:100CB8003AA93B853F82853E83120A4A605E7F805F
:100CC800120EE77F01120EE7853C40853D41D3E5D2
:100CD80041953FE53E6480F8E5406480985024AB38
:100CE80039AA3AA93B854182854083120A4AFF12F4
:100CF8000EF67F017E00120E9F0541E54170CF057B
:100D08004080CB7F0A7E00120E9F053DE53D7002B4
:0C0D1800053C053FE53F7095053E8091CD
:010D240022AC
:040E9B007FC87E008E
:100E9F00E4FDFCC3ED9FEC9E5015E4FBFA0BBB0089
:0F0EAF00010ABA04F8BBFBF50DBD00010C80E48D
:010EBE002211
:100DE500020800E493A3F8E493A34003F68001F21C
:100DF50008DFF48029E493A3F85407240CC8C3330F
:100E0500C4540F4420C8834004F456800146F6DFDD
:100E1500E4800B0102040810204080900F1FE47E3F
:100E2500019360BCA3FF543F30E509541FFEE493D2
:100E3500A360010ECF54C025E060A840B8E493A399
:100E4500FAE493A3F8E493A3C8C582C8CAC583CAC4
:100E5500F0A3C8C582C8CAC583CADFE9DEE780BE7C
:010F230000CD
:100A3100BB010689828A83E0225002E722BBFE02C3
:090A4100E32289828A83E49322F6
:100A4A00BB010CE58229F582E5833AF583E0225061
:100A5A0006E92582F8E622BBFE06E92582F8E222AB
:0D0A6A00E58229F582E5833AF583E49322C5
:100A7700E3F5F009E208B5F06D606B80F3E3F5F09C
:100A870009E608B5F060605E80F387F009E608B50F
:100A9700F054605280F487F009E208B5F0486046E8
:100AA70080F488828C8387F009E0A3B5F03860363C
:100AB70080F488828C8387F009E493A3B5F02760DC
:100AC7002580F388828C83E3F5F009E0A3B5F0165F
:100AD700601480F388828C83E3F5F009E493A3B56F
:100AE700F004600280F2020BA2808580E7808E808E
:100AF700D2803C8015806C807E809B80B5808B8007
:100B0700A1804F8070803A020BAE89828A83ECFA0B
:100B1700E493F5F0A3C8C582C8CCC583CCE493A3FE
:100B2700C8C582C8CCC583CCB5F070606E80E1893A
:100B3700828A83E493F5F0A3E208B5F05E605C80F7
:100B4700F289828A83E0F5F0A3E608B5F04D604BA1
:100B570080F389828A83E0F5F0A3E208B5F03C6070
:100B67003A80F389828A83E493F5F0A3E608B5F027
:100B77002A602880F2805389828A83ECFAE493F50D
:100B8700F0A3C8C582C8CCC583CCE0A3C8C582C8BA
:100B9700CCC583CCB5F004600280E27FFFB5F002DC
:100BA7000F2240027F012289828A83ECFAE0F5F066
:100BB700A3C8C582C8CCC583CCE0A3C8C582C8CCAE
:100BC700C583CCB5F0D560D380E389828A83ECFAFC
:100BD700E0F5F0A3C8C582C8CCC583CCE493A3C80D
:100BE700C582C8CCC583CCB5F0B160AF80E288F0D0
:100BF700ED2402B4040050A3F582EB2402B40400F0
:0B0C070050992323458223900AF073CC
:100EBF00E4FFFE120A31600C0FEF70010E09E970AA
:050ECF00F20A80EF2291
:00000001FF
