:100A9A004C415420004C4F4E004750532053595359
:040AAA0054454D0062
:0C0AC0000650244750524D43020800002D
:0809EA00C291D2927F017E0050
:1009F200E4FDFCC3ED9FEC9E5015E4FBFA0BBB003B
:0F0A0200010ABA04F8BBFBF50DBD00010C80E43E
:010A110022C2
:0A0AD9008FA0C2901209EAC2922217
:080AAE00F8E6FF120AB6E4FFAE
:0A0AB6008FA0D2901209EAC292222A
:06098B008B6A8A6B896C87
:10099100E4F56DF56EAB6AAA6BA96C856E82856D07
:1009A100831209BDFF6014120AB6056EE56E70026E
:0B09B100056D7F0A7E001209F280DA5B
:0109BC002218
:0C0ACD00758920758DFD759850D28E2221
:100A3900E4FFFEFDFC740A2DF8E6B42C0DAB050F9E
:100A4900EF70010E142459F8A6030DBD00010CED39
:050A590064464C70E052
:010A5E002275
:100A8500E4F5A8120A3912088C1208E7E4F508F50E
:050A95000975A8902284
:030023000209428D
:10094200C0E0C0D075D000C000C006C0070509E5F0
:10095200097002050814240AF8A699C3E509940748
:10096200E50894005016AF09744F2FF8E6FE74099B
:100972002FF8E66E6006750800750900C298D00768
:09098200D006D000D0D0D0E03244
:100A12007F40120AD97F0A120AB67F11120AB67FE4
:100A220011120AB67F0A120AB6E4120AB0E4FF12E1
:070A32000AB6E4FF020AB658
:10088C00AF5BEF3395E0F5688F697F80120AD97BF7
:10089C00FF7A0A799A12098B740B2569F8E6FF1214
:1008AC000AB6740C2569120AAE755700755803E523
:1008BC00692558240AF8E6FF120AB60558E558705F
:1008CC00020557D39409E557940040E37F27120A99
:0B08DC00B674152569F8E6FF020AB6A5
:1008E700AF5DEF3395E0F5688F697FC0120AD97B5A
:1008F700FF7A0A799F12098B740B2569F8E6FF12B4
:100907000AB6740C2569120AAE755700755803E5C7
:10091700692558240AF8E6FF120AB60558E5587003
:10092700020557D3940AE557940040E37F27120A3C
:0B093700B674162569F8E6FF020AB648
:100A5F00120ACD7F38120AD97F0C120AD97BFF7A7E
:100A6F000A79A312098B75A890E5096445450870AA
:060A7F00F8120A8580F365
:03000000020800F3
:0C080000787FE4F6D8FD75816E02084791
:1009BD00BB010CE58229F582E5833AF583E02250EF
:1009CD0006E92582F8E622BBFE06E92582F8E22239
:0D09DD00E58229F582E5833AF583E4932253
:10080C00020A5FE493A3F8E493A34003F68001F299
:10081C0008DFF48029E493A3F85407240CC8C333ED
:10082C00C4540F4420C8834004F456800146F6DFBC
:10083C00E4800B0102040810204080900AC0E47E82
:10084C00019360BCA3FF543F30E509541FFEE493B1
:10085C00A360010ECF54C025E060A840B8E493A378
:10086C00FAE493A3F8E493A3C8C582C8CAC583CAA3
:10087C00F0A3C8C582C8CAC583CADFE9DEE780BE5B
:010ACC000029
:00000001FF
