:0509B2006F6B6179008C
:08096100C291D2927F0A7E00D0
:10096900E4FDFCC3ED9FEE6480F8EC6480985007C9
:070979000DBD00010C80EC34
:010980002254
:100996008FA0C290120961C2927FE87E03020969A4
:050981001209867F6CE5
:100986008FA0D290120961C2927FE87E03020969A4
:1008F60078087C007D007BFF7A0979B27E007F054F
:100906001208D07F381209967F0E1209967F0112BF
:1009160009967F801209967F481209867F6512091B
:10092600817F6C1209867F6F1209867F20120986E5
:100936007F771209867F6F1209867F721209817F7F
:10094600641209867FC0120996E4FB74082BF8E648
:0B095600FF60061209860B80F280FE95
:030000000209A64C
:0C09A600787FE4F6D8FD75810C0208F69D
:10080000E709F608DFFA8046E709F208DFFA803EDA
:1008100088828C83E709F0A3DFFA8032E309F608C7
:10082000DFFA8078E309F208DFFA807088828C832F
:10083000E309F0A3DFFA806489828A83E0A3F608E3
:10084000DFFA805889828A83E0A3F208DFFA804CBD
:1008500080D280FA80C680D4806980F28033801094
:1008600080A680EA809A80A880DA80E280CA8033FD
:1008700089828A83ECFAE493A3C8C582C8CCC58375
:10088000CCF0A3C8C582C8CCC583CCDFE9DEE78045
:100890000D89828A83E493A3F608DFF9ECFAA9F0C4
:1008A000EDFB2289828A83ECFAE0A3C8C582C8CC1A
:1008B000C583CCF0A3C8C582C8CCC583CCDFEADE33
:1008C000E880DB89828A83E493A3F208DFF980CC95
:1008D00088F0EF60010E4E60C388F0ED2402B4048E
:1008E0000050B9F582EB2402B4040050AF23234535
:0608F00082239008507302
:00000001FF
